:06000000DAEF38F0000CFD
:08000800046ED8CF05F0E0CF33
:1000100006F00001E9CF0CF0EACF07F0E1CF08F0DD
:10002000E2CF09F0D9CF0AF0DACF0BF0F3CF12F01C
:10003000F4CF13F0FACF14F000C00EF001C00FF0AF
:1000400002C010F003C011F0F2AA2AEF00F0F2B4DF
:100050005AEF00F00EC000F00FC001F010C002F027
:1000600011C003F00CC0E9FF07C0EAFF078E08C00B
:10007000E1FF09C0E2FF0AC0D9FF0BC0DAFF12C0DE
:10008000F3FF13C0F4FF14C0FAFF045006C0E0FFF2
:1000900005C0D8FF1000F2CF0DF0F29EF76AB00F46
:1000A000F66E000EF7220900F5500DBEF28E12001A
:1000B000280C01064F2AD8B4502A522A5250090857
:1000C00002E2512A526A850ED76EED0ED66EF29478
:1000D0002AEF00F03C48544D4C3E3C424F44593EC0
:1000E0003C48313E343034204572726F723C2F48A8
:1000F000313E3C48523E3C503E46696C65204E6F56
:100100007420666F756E642E3C2F424F44593E3CFE
:100110002F48544D4C3E00003C48544D4C3E3C4210
:100120004F44593E3C48313E353030204572726F65
:10013000723C2F48313E3C48523E3C503E496E7422
:1001400065726E616C2053657276657220457272BD
:100150006F723C2F424F44593E3C2F48544D4C3E09
:100160000000485454502F312E3020254C5520008B
:100170004E6F7420666F756E64005365727665729B
:10018000204572726F7200000D0A436F6E74656EC7
:10019000742D547970653A200000746578742F6866
:1001A000746D6C000D0A0D0A0000200A3C48544D85
:1001B0004C3E3C424F4459204247434F4C4F523DE6
:1001C0002346464646464620544558543D23303043
:1001D000303030303E200A200A3C63656E74657210
:1001E0003E3C48313E5365727669646F72205745D4
:1001F0004220636F6E2050494320313866343535D4
:1002000030203C2F48313E3C2F63656E7465723E52
:10021000200A3C42523E3C63656E7465723E3C4827
:10022000323E524F424F54595049433C2F48323E80
:100230003C2F43454E5445523E200A200A200A3C9A
:10024000464F524D204D4554484F443D4745543E3E
:10025000200A3C503E4C43443A203C494E505554B1
:1002600020545950453D227465787422204E414DEA
:10027000453D226C6364222073697A653D323020EB
:100280006D61786C656E6774683D31363E200A3C5E
:10029000696E70757420747970653D227375626D36
:1002A0006974222076616C75653D22456E766961C0
:1002B0007220746578746F223E200A3C2F464F529C
:1002C0004D3E200A200A3C464F524D204D45544891
:1002D0004F443D4745543E200A3C696E707574207A
:1002E000747970653D227375626D697422206E6148
:1002F0006D653D22626F746F6E31222076616C7580
:10030000653D22426F74F36E2031223E200A3C2F5D
:10031000464F524D3E200A200A3C464F524D204D3A
:100320004554484F443D4745543E200A3C696E7051
:10033000757420747970653D227375626D697422DD
:10034000206E616D653D22626F746F6E3222207681
:10035000616C75653D22426F74F36E2032223E203F
:100360000A3C2F464F524D3E200A200A3C464F522F
:100370004D204D4554484F443D4745543E200A3C8E
:10038000696E70757420747970653D227375626D45
:10039000697422206E616D653D22626F746F6E33E9
:1003A000222076616C75653D22426F74F36E2033B6
:1003B000223E200A3C2F464F524D3E200A200A3C46
:1003C000503E3C4120485245463D222F6C656374A7
:1003D00075726173223E4C6563747572617320643B
:1003E000656C205049433C2F413E200A3C2F424F30
:1003F00044593E3C2F48544D4C3E200A0000200AF0
:100400003C6D65746120687474702D6571756976D2
:100410003D227265667265736822636F6E74656EE5
:10042000743D22333B75726C3D6C6563747572610B
:1004300073223E200A200A3C48544D4C3E3C424F19
:100440004459204247434F4C4F523D23464646466F
:10045000464620544558543D233030303030303EED
:10046000200A3C503E200A3C63656E7465723E3C37
:1004700048313E5365727669646F72205745422059
:10048000636F6E2050494320313866343535302053
:100490003C2F48313E3C2F63656E7465723E200AE6
:1004A0003C42523E3C63656E7465723E3C48323E4F
:1004B000524F424F54595049433C2F48323E3C2FF3
:1004C00043454E5445523E200A3C62723E3C6365B1
:1004D0006E7465723E4C454354555241533C2F63F4
:1004E000656E7465723E200A200A3C503E3C423ED6
:1004F000414E3A203C2F423E2530203C2F503E209A
:100500000A3C42522F3E200A3C503E3C423E52455D
:10051000303A203C2F423E2531203C2F503E200ACD
:100520003C42522F3E200A200A200A3C503E3C41C9
:1005300020485245463D222F223E4C43442F4C45F5
:1005400044733C2F413E200A3C2F424F44593E3CCD
:100550002F48544D4C3E200A00000C5265717565C1
:1005600073742025732000000A2846494C453D2518
:100570004C5529000A2846696C65204E6F74204648
:100580006F756E6429000C4347492046494C453D30
:10059000254C44000A4B45593D2553000A56414C11
:1005A0003D2553000C524F424F5459504943205758
:1005B000454220534552564552000A0A2049503AB6
:1005C0002025752E25752E25752E257500000A20EF
:1005D00050756572746F3A2025750000030EEA6E3F
:1005E000220EE96EEF500DE0060E016E006A002E3D
:1005F000FED7012EFBD77B0E006E002EFED7EF2E0E
:10060000F3D7000C030128B102D08C9801D08C885C
:10061000959828B302D08C9A01D08C8A959A28B5E7
:1006200002D08C9C01D08C8C959C28B702D08C9EDB
:1006300001D08C8E959E000095908C80030E006EEC
:10064000002EFED795908C900001000C0301296BC1
:1006500095908C8000009588299183B82981958A8E
:10066000299383BA2983958C299583BC2985958EF6
:10067000299783BE298795908C9029C301F00001AA
:10068000000C95948C840000E1DF01C028F3DEDFCC
:1006900001C027F303012839006EF00E0016005048
:1006A0002711016E000158EF03F095928C92E9D763
:1006B00001C027F3030101AE02D00001F8D7255392
:1006C00003E095928C8202D095928C9200009594D2
:1006D0008C94000095908C902639276F0F0E271769
:1006E00027C328F300018EDF030126510F0B276F6C
:1006F000286F000187DF000C95928C9295948C9462
:1007000095908C900F0E0301226F000167DF0201AC
:10071000EE6BEE5102080DE3030E0301286F00019A
:1007200071DF050E0301226F000158DF0201EE2B7D
:10073000F0D7020E0301286F000164DF0201EE6BA7
:10074000EE51030813E3036AEE51F2CFEFF2F29E8B
:100750000001A1DC0201EFBFF28EEF6F0301256BF8
:10076000266F0001A2DF0201EE2BEAD7000115EF90
:100770003BF0010E0301235DFC0F1DE2040F00019D
:10078000E4EF03F0800E0301246F010E166E13D008
:10079000C00E0301246F020E166E0DD0940E0301DD
:1007A000246F030E166E07D0D40E0301246F040EBF
:1007B000166E01D00301010E225D2427256B24C390
:1007C00026F3000172DF000CF2CF0DF0F29EE82458
:1007D000F76AF736ED0FF66E070EF7220A00F550AE
:1007E000FA6E0800F5500DBEF28EF96E8407900780
:1007F0009C07A807030121510C0A000105E0060A25
:1008000011E0020A21E027D00301256B010E266FBB
:1008100000014BDF010E166E020E0301226F000174
:10082000DDDE21D0162A010E0301226F16C023F34C
:1008300000019FDF1650040806E2010E0301226F3B
:10084000236F000196DF0FD00301256B100E266F7A
:1008500000012BDF08D0010E0301256F21C326F311
:10086000000123DF00D0000C0900F5520CE0F6CFA8
:1008700004F3F7CF05F3F5CF21F3BCDF04C3F6FF94
:1008800005C3F7FFF1D7000C1B6A040E1C6EA30E04
:100890001D6E060E1E6E070E1F6E080E206E2AEFCE
:1008A0003BF0C00E176EA80E186E010E196E0F0EDB
:1008B0001A6EC00E256EA80E266E010E276E286ECB
:1008C000FF0E216E226E236E246A2CEF3BF0830E06
:1008D000D56E850ED76EED0ED66EF28AC00EF21270
:1008E000B9EF08F0C69A949E93809392200EC66E3C
:1008F000400EC76E93948A8493968A86D1EF05F052
:10090000C950A7C3C9FFC730FEE3C9CF01F0000C2F
:1009100093948A949CC39EF39CC3A7F30001F0DFD9
:100920000301A76B0001ECDF01C09DF393948A845F
:1009300003019DC301F00001000C93948A94FF0E03
:100940000301A76F0001DCDF93948A84E6EF05F0D2
:1009500093948A940301A2514009A46FA76F0001E8
:10096000CFDFA3C3A7F3CCDF93948A84000C9394C6
:100970008A940301A151A009A36FA76F0001C0DFF2
:10098000A2C3A7F3BDDF93948A84000C93948A9446
:100990000301A4518009A66FA76F0001B1DFA5C3B1
:1009A000A7F3AEDF93948A84000C1F0E0301A16F9E
:1009B000030EA26F0001DBDF030EEA6EA00EE96EEC
:1009C000EFCFA3F31F0E0301A46FA3C3A5F3000190
:1009D000DDDF000C93948A94F6C2F8F2F6C2A7F316
:1009E00000018EDF0301A76B00018ADF0301A76B03
:1009F000000186DF01C0F7F293948A840201F7C2F6
:100A000001F00001000C020E0301A06F140E9F6F95
:100A10000001CBDF140E0301A26FF3C2A3F30001A8
:100A200097DF020EEA6EF40EE96EEFCFF8F2160EC3
:100A30000301A26FF8C2A3F300018ADF020EEA6E7F
:100A4000F50EE96EEFCFF8F2170E0301A26FF8C2B0
:100A5000A3F300017DDF030E0301A06F0A0E9F6F59
:100A60000001A3DF0A0E0201F66F0001B3DF01B03F
:100A7000F9D7000C020E0301A06F140E9F6F000146
:100A800094DF140E0301A26FF3C2A3F3000160DF31
:100A9000120E0301A26F010EA36F000159DF030EB6
:100AA0000301A06F0A0E9F6F00017FDF0A0E020193
:100AB000F66F00018FDF01B0F9D7020E0301A06FBE
:100AC000140E9F6F000171DF120E0301A26FA36B62
:100AD00000013EDF180E0201F66F00017BDF01C04E
:100AE000F4F2190E0201F66F000174DF01C0F5F295
:100AF0000201F4C201F0F5C202F000018BEF05F033
:100B00001F0E0301A16F0C0EA26F000130DF020166
:100B1000F36B0001AFD702C0F2F201C0F1F20201A3
:100B2000EF51020804E1EF6BF2B1EF2B0AD0F29122
:100B3000EFB1F281F36BF2C2F5F2F1C2F4F200010F
:100B400062DF020E0301A06F9F6F00012EDF020E15
:100B50000201F66F00013EDF01C0F0F20201F091E8
:100B6000EFB1F081020E0301A26FF0C2A3F3000106
:100B7000EFDE0201EF5302E0150E01D0120EF36F0B
:100B8000040E0301A26FF3C2A3F30001E1DE1F0E06
:100B90000301A46F040EA56F0001F8DEAEEF06F0AE
:100BA000A1D61D0E03019C6F0001B2DE01C0EEF262
:100BB0000201EEA702D00001F4D7EE51FF0A010BAB
:100BC000D8B402D00001EDD70001B7D6010E030161
:100BD000226F000103DD4E6A5780546A536A080E83
:100BE0000301A26FA36B0001B3DE090E0301A26F24
:100BF000A36B0001ADDE0C0E0301A26FF70EA36F15
:100C00000001A6DE0D0E0301A26F1B0EA36F0001F3
:100C10009FDE0A0E0301A26FF70EA36F000198DE9C
:100C20000B0E0301A26F1B0EA36F000191DE040ED9
:100C30000301A26FF80EA36F00018ADE050E030107
:100C4000A26F1B0EA36F000183DE020E0301A06FD3
:100C50009F6B0001AADE0301A26B0D0EA36F0001C2
:100C600077DE020E0301A26F320EA36F000170DE69
:100C7000030E0301A26F400EA36F000169DE090E8F
:100C80000301A26F3F0EA36F000162DE060E030197
:100C9000A26F120EA36F00015BDE070E0301A26FAD
:100CA0000C0EA36F000154DE0A0E0301A26FEE0EBC
:100CB000A36F00014DDE0B0E0301A26F050EA36FA3
:100CC000000146DE030E0301A06F040E9F6F0001BA
:100CD0006CDE040E0301A26F1BC0A3F3000138DE1B
:100CE000050E0301A26F1CC0A3F3000131DE020E4A
:100CF0000301A26F1DC0A3F300012ADE030E03014E
:100D0000A26F1EC0A3F3000123DE0301A26B1FC06C
:100D1000A3F300011DDE010E0301A26F20C0A3F3A7
:100D2000000116DE120E03019C6F0001F1DD01C00F
:100D300058F0100E0201F36F010EF56FF46B000115
:100D400062DE140E0201F36F040EF56F720EF46F83
:100D5000000159DE0201EF6B0001D2D61F0E030124
:100D6000A46F040EA56F000111DEBAEF08F05792D0
:100D7000FF0E0101146F156F166F176F186F196F43
:100D80001D6B1C6B1B6B1A6B0001BBEF08F0F4C2F0
:100D90004DF0F3C24CF0F2C24BF0F1C24AF0E6EF74
:100DA00007F00201F96BFA6B010EFB6FDA6AD96A80
:100DB000020EFE6FF10EFD6F020EEA6EF50EE96E89
:100DC000FEC2E2FFFDC2E1FFFBC2FCF2D890E5509B
:100DD000EE02F350F923F450FA23FC2FF7D7F9C2AF
:100DE000DEFFFAC2F9F2FA6BD8B0FA2BFD2BD8B4B9
:100DF000FE2BFB2BFB510508DFE1000137EF07F06D
:100E0000016A026A006A036A0201F75102E1F651BF
:100E100018E0100EF86FD890F437F5370036033627
:100E2000F751035C02E1F651005C07E3F651005E06
:100E3000D8A00306F751035ED88001360236F82F9A
:100E4000EAD7000158EF07F04DC0F4F24CC0F3F2BE
:100E50004BC0F2F24AC0F1F2410E0201F86FC60E29
:100E6000F76F4E0EF66F6D0EF56F00019AD7390EC3
:100E7000020100244A6E300E01204B6E000E02204B
:100E80004C6E000E03204D6E4CC000F04DC001F0C2
:100E9000026A036A4DC0F3F24CC0F2F24DC0F5F2A3
:100EA0004CC0F4F27F0EF76FFF0EF66F0001A8D76B
:100EB00000C001F003C002F0E7EF07F00201EE6BA3
:100EC000EE51040869E3EE51240DF350036A5E0FFE
:100ED000016E000E032201C0EFF203C0F0F2EFC278
:100EE000E9FFF0C2EAFF0A0EEF6E230EEF25E96E6E
:100EF000000EF021EA6EEF90230EEF25E96E000E52
:100F0000F021EA6EEF82230EEF25E96E000EF0214C
:100F1000EA6EEF84230EEF25E96E000EF021EA6EF3
:100F2000EF98230EEF25E96E000EF021EA6EEF96A2
:100F30000F0EEF25E96E000EF021EA6EEF3C01D0B6
:100F400016D00F0EEF25E96E000EF021EA6EEFCFFE
:100F5000F1F2F1C241F3000102EC00F00F0E0201C8
:100F6000EF25E96E000EF021EA6EFF0EEF6E210E06
:100F7000EF25E96E000EF021EA6EEC6AED521E0ECE
:100F8000EF6E100EEF25E96E000EF021EA6EEC6AAE
:100F9000ED52EF6AEE2B94D7D65001011227D750AD
:100FA0001323CE501227CF501323CC501227000EFC
:100FB0001323B2501227B35013230201F46BF36BC7
:100FC00013C1F2F212C1F1F20001E1D63DD702C025
:100FD0005DF001C05CF0040E5D265D5012080AE26F
:100FE000FF0A03E15C50870805E2880E5C5E130E81
:100FF0005D5AF3D75D50030802E3040E5D26BCEF93
:1010000008F00201F36BF351040874E3F351240D6B
:10101000F350036A5E0F016E000E032201C0F4F26A
:1010200003C0F5F2F4C2E9FFF5C2EAFFEF500A0887
:101030005FE1F4C2E9FFF5C2EAFFEF6A0B0EF425A7
:10104000E96E000EF521EA6EF2C2ECFFED52F1C23C
:10105000EFFF0D0EF425E96E000EF521EA6EEC6A45
:10106000ED52EF6A070EF425E96E000EF521EA6EE7
:10107000EE52EE52EC6AED52EF6AED52EF6AED522B
:10108000EF6A230EF425E96E000EF521EA6EEF807B
:10109000230EF425E96E000EF521EA6EEF960F0E91
:1010A000F425E96E000EF521EA6EEF3C01D016D072
:1010B0000F0EF425E96E000EF521EA6EEFCFF6F281
:1010C000F6C241F3000102EC00F00F0E0201F4251C
:1010D000E96E000EF521EA6EFF0EEF6E230EF42589
:1010E000E96E000EF521EA6EEF82F3C201F004D042
:1010F000F32B89D7FE0E016E000192EF08F002017A
:10110000EE6BEE532EE1036AEE511E0F016E010EDF
:10111000032201C0EFF203C0F0F2F26B500EF16F48
:1011200000016FD7F0C2EAFFEFC2E9FF01C0EFFF95
:10113000036A0201EE511E0FE96E010E0320EA6EF2
:10114000EF50FE080CE0D890EE35036A1F0FE96EF1
:10115000010E0320EA6E010EEC6EED52EF6EEE2BE7
:10116000D0D70001BDEF08F00201766B000167EFF8
:1011700004F016D5FCD5A2D6C2D72EEF3BF009005D
:10118000F6CF16F3F7CF17F3F5CF21F3FAEC03F010
:1011900016C3F6FF17C3F7FF0301152F01D002D0C6
:1011A0000001EDD70001000C03013251016A315DED
:1011B00003E231C300F00CD0006A080E336F313700
:1011C00000363251005CD8B0006E0136332FF7D7AD
:1011D0000001000C0150EEC231F3640E0301326FC6
:1011E0000001E2DF00C0EEF20150300E08E1020122
:1011F000EFA30FD0EFB70DD0EFB9200E04D002014E
:10120000EF97EF99EF81012601C021F30001FAEC7D
:1012100003F0EEC231F30A0E0301326F0001C4DFA6
:1012200000C0EEF20150300E08E10201EFB70BD022
:10123000EFA109D0EFB9200E0001012601C021F372
:10124000FAEC03F00201300EEE27EEC221F30001AA
:10125000FAEC03F0000C57A001D032D05780010EF9
:10126000535C0301406F000E5458416F41511A08FE
:1012700009E2FF0A03E14051F70804E21B0E416F47
:10128000F70E406F1E0EA46F400EA56F0001C6EC56
:1012900004F00301A06B0C0E9F6F0001D5EC04F06D
:1012A0000C0E0301A26F40C3A3F30001A8EC04F0ED
:1012B0000D0E0301A26F41C3A3F30001A8EC04F0DB
:1012C000000C0301906B8F6B93948A943A0EA76F76
:1012D000000180EC04F0030190518E5D1CE303E1FA
:1012E0008D518F5D18E28CC303F08BC391F38CC3D7
:1012F00092F3A76B000180EC04F092C3EAFF91C364
:10130000E9FF01C0EFFF03018B2BD8B48C2B8F2B8F
:10131000D8B4902BE1D793948A848FC301F090C303
:1013200002F00001000C9DC39EF39CC39FF30301D8
:101330009EC301F09FC302F00001000C010E0301E7
:10134000A06F190E9F6F0001D5EC04F0190E030178
:101350009C6F000188EC04F0015203E1000E016E65
:1013600086D057B004D077DF000E016E80D054C015
:1013700056F053C055F00301A06B9F6B0001D5ECF4
:1013800004F00301A26B53C0A3F30001A8EC04F026
:10139000010E0301A26F54C0A3F30001A8EC04F0F6
:1013A000020E03010D6FF80E0DC38CF38B6F8E6B65
:1013B000140E8D6F000185DF0BC39DF30AC39CF3F0
:1013C000B2DF02C00BF301C00AF30201F9511A089F
:1013D00005E2FF0A17E1F851F70814E3020EEA6E7E
:1013E000F80EE96EEFB00ED0FDBF0CD0FCB90AD0FC
:1013F000FB51040805E2FF0A05E1FA51EE0802E399
:10140000FCBF01D0FF00F9C254F0F8C253F0F4C29F
:101410000CF3F5C20DF30301F5C2EAFFF4C2E9FFD4
:10142000030EE26E040EE16E060E016EE6CFEEFFD5
:10143000012EFCD7F7C203F00201F6C2E9FF03C098
:10144000EAFFFF0EEF6E03010B5108080DE10A538E
:1014500003E00A51060808E10201F6C2E9FFF7C2FB
:10146000EAFF0AC3EFFF03015790010E016E00016E
:1014700000EF38F0030120C301F021C303F020C3C3
:1014800022F321C323F320C3E9FF21C3EAFFECCFFA
:1014900025F3ED52EFCF24F325C39DF324C39CF332
:1014A000000141DF23C3EAFF22C3E9FF02C0ECFFD2
:1014B000ED5201C0EFFF020E03012025016E000E68
:1014C0002121036E01C022F3236F020E2025E96E55
:1014D000000E2121EA6EECCF25F3ED52EFCF24F37D
:1014E00025C39DF324C39CF300011DDF23C3EAFF42
:1014F00022C3E9FF02C0ECFFED5201C0EFFF060E70
:1015000003012025016E000E2121036E01C022F38C
:10151000236F060E2025E96E000E2121EA6EECCF26
:1015200025F3ED52EFCF24F325C39DF324C39CF3A1
:101530000001F9DE23C3EAFF22C3E9FF02C0ECFF8A
:10154000ED5201C0EFFF000C030E03018C6F8B6F97
:101550008E6B1C0E8D6F0001B4DE7DDE030E030169
:10156000216F206F000186DF0301032D08D0045393
:1015700006E10751060803E10851040803E0000EE4
:10158000016E51D00951020808E10A5306E101C376
:10159000E9FF02C3EAFFEF6A14D0092D09D00A530C
:1015A00007E101C3E9FF02C3EAFF010EEF6E09D0B4
:1015B00001C3E9FF02C3EAFF020EEF6E000E016EE7
:1015C00032D017501B5D2CE118501C5D29E11950D9
:1015D0001D5D26E11A501E5D23E1FFC2E9FF0301F4
:1015E00000C3EAFF030EE26E0B0EE16E060E016E03
:1015F000E6CFEEFF012EFCD7060E0201FF25E96EB5
:10160000000E03010021EA6E11C3EFFF12C3ECFFCD
:1016100013C3ECFF14C3ECFF010E016E04D003D022
:10162000000E016E00D00001D7EF0DF01F0E030178
:101630009C6F000188EC04F001B602D0000E01D0CE
:10164000FF0E016E00D0000C96C34EF0070E030192
:1016500097271C0E9823A06B020E9F6F0001D5ECFC
:1016600004F0030EEA6E970EE96EEFCF9BF30301D1
:10167000A26B9BC3A3F30001A8EC04F0030EEA6E77
:10168000980EE96EEFCF9BF3010E0301A26F9BC38F
:10169000A3F30001A8EC04F0030EEA6E970EE96EC6
:1016A000EFCF9BF3020E0301A26F9BC3A3F30001D4
:1016B000A8EC04F0030EEA6E980EE96EEFCF9BF3F0
:1016C000030E0301A26F9BC3A3F30001A8EC04F077
:1016D000000C93948A947A0E0301A76F000180ECAA
:1016E00004F0A0C3A7F380EC04F093948A84000C68
:1016F00093948A947A0E0301A76F000180EC04F0A2
:101700000301A4C303F0A351D8B4A407A307031093
:1017100012E0A2C303F0A1C3E9FFA2C3EAFFEFCF27
:10172000A5F3A5C3A7F3000180EC04F00301A12BEE
:10173000D8B4A22BE6D793948A840001000C03014D
:10174000A06B020E9F6F0001D5EC04F0020E0301A6
:10175000A26FF80EA36F0001A8EC04F0030E0301C2
:10176000A26F1B0EA36F0001A8EC04F0060E03018C
:101770009D271C0E9E23030EEA6E9D0EE96EEFCF91
:10178000A1F3060EA26FA1C3A3F30001A8EC04F01D
:10179000030EEA6E9E0EE96EEFCFA1F3070E030172
:1017A000A26FA1C3A3F30001A8EC04F00301A06B96
:1017B00000018FDF9BC3A2F39AC3A1F30301A46BC3
:1017C000060EA36F000194DF0301A06B1B0EA0C3E4
:1017D000A2F3A16FA46B060EA36F000189DF080EB0
:1017E0000301A06F000175DF03019C5302E1000EAD
:1017F00001D0060EA06F00016CDF000C1C0E03016F
:101800009C6F000188EC04F001A210D01F0E0301B0
:10181000A46F800EA56F0001C6EC04F01F0E03013B
:10182000A16F800EA26F0001B7EC04F01C0E030143
:10183000A16F0A0EA26F0001B7EC04F01F0E0301A6
:10184000A46F080EA56F0001C6EC04F058500508FF
:10185000D8A4CDD01C0E03019C6F000188EC04F0CD
:1018600001500A0BF7E01C0E03019C6F000188EC8D
:1018700004F001A2BCD01F0E0301A16F080EA26FDD
:101880000001B7EC04F00301A06B9F6B0001D5ECE5
:1018900004F003019C6B000188EC04F001C07DF3AF
:1018A000010E03019C6F000188EC04F001C07EF37F
:1018B000060E03019C6F000188EC04F001C07FF369
:1018C000070E03019C6F000188EC04F001C080F357
:1018D00003017F2BD8B4802BA26B7FC3A3F300013D
:1018E000A8EC04F0010E0301A26F80C3A3F3000172
:1018F000A8EC04F0030E03018A6F810E8AC38CF3F7
:101900008B6F8E6B070E8D6F0001DBDC0301886B24
:1019100088510F085EE31C0E9C6F000188EC04F0F8
:1019200001A251D0030184BB02D000014CD01F0E94
:10193000A46F800EA56F0001C6EC04F01F0E03011A
:10194000A16F800EA26F0001B7EC04F01C0E030122
:10195000A16F0A0EA26F0001B7EC04F01F0E030185
:10196000A46F080EA56F0001C6EC04F01C0E030165
:101970009C6F000188EC04F001500A0BF7E01F0E89
:101980000301A16F080EA26F0001B7EC04F0030180
:10199000A26B7FC3A3F30001A8EC04F0010E0301C6
:1019A000A26F80C3A3F30001A8EC04F0030E0301AF
:1019B0008A6F810E8AC38CF38B6F8E6B070E8D6FCF
:1019C00000017FDC03D0030104D000010301882B58
:1019D0009FD7A26B7DC3A3F30001A8EC04F0010E16
:1019E0000301A26F7EC3A3F30001A8EC04F0000C76
:1019F000010E03017D6F000119DE01C01EF303011A
:101A00001E3D03D0000E016EBCD01EC396F3986B32
:101A1000976B000119DE0301036B010E026F080EC4
:101A2000056F046B060E066F040E076F012D0BD0B9
:101A3000096B010E086FFF0E146F156F166F176F8D
:101A4000186F196F18D0096B020E086F030100C3DD
:101A500003F0FFC21FF300C320F3030EEA6E140E5F
:101A6000E96E00C3E2FFFFC2E1FF060E016EE6CFA2
:101A7000EEFF012EFCD7030EEA6E0A0EE96EE26A53
:101A80001B0EE16E060E016EE6CFEEFF012EFCD7B7
:101A90001AC013F319C012F318C011F317C010F3D2
:101AA000060E0201FF25E96E000E03010021EA6E19
:101AB000EFCF00F0ECCF01F0ECCF02F0ECCF03F071
:101AC000005010191F6F01501119206F0250121988
:101AD000216F03501319226F1F512114006E2051E2
:101AE0002214016E21512314026E22512414036E1C
:101AF000005206E1015204E1025202E1035209E000
:101B000028C01DF327C01CF326C01BF325C01AF301
:101B100018D0060E0201FF25E96E000E0301002118
:101B2000EA6EEFCF00F0ECCF01F0ECCF02F0ECCF9B
:101B300003F003C01DF302C01CF301C01BF300C07F
:101B40001AF3030E216F020E206F000193DC030EC7
:101B500003019B6F140E9A6F060E9C6F9E6B1C0EFA
:101B60009D6F0001ECDD030E0301A26F020EA16F59
:101B7000A46B1C0EA36F0001BBDD40DE010E016EE5
:101B80000301000105EF0EF0000E57B2010E000A2E
:101B900001E031D0020E0301006FF40E0201FF6F6D
:101BA000020E0301026FFE0E016F0001CDD401523F
:101BB00001E133D02BEC09F00201FE531AE1010ED2
:101BC000EA6E140EE96E020EE26EF40EE16E060E7F
:101BD000016EE6CFEEFF012EFCD7FDC21DF1FCC267
:101BE0001CF1FBC21BF1FAC21AF1000116D003D09E
:101BF000020157820001020E0301006FF40E020180
:101C0000FF6F0301016B0001F3D6015202E057920E
:101C100003D0000E016E03D000D0010E016E18EF4C
:101C200038F0140E55240301536F000E5620546FE4
:101C30004D515325516F4E515421526F52511A0834
:101C400009E2FF0A03E15151F70804E2F80E515F7F
:101C50001B0E525BA06B100E9F6F0001D5EC04F0C1
:101C6000100E0301A26F51C3A3F30001A8EC04F00E
:101C7000110E0301A26F52C3A3F30001A8EC04F0FC
:101C8000010E03014F5D006E000E5059036E0050AF
:101C900051270350522352511A0809E2FF0A03E167
:101CA0005151F70804E2F80E515F1B0E525B120E01
:101CB000A26F51C3A3F30001A8EC04F0130E0301BB
:101CC000A26F52C3A3F30001A8EC04F01F0E03019E
:101CD000A46F300EA56F0001C6EC04F01F0E0301C7
:101CE0009C6F000188EC04F001BAF8D7160E0301CE
:101CF0009C6F000188EC04F001C052F3170E030141
:101D00009C6F000188EC04F001C051F3030151C342
:101D100001F052C302F00001000C140E552403011F
:101D2000296F000E56202A6F25512925276F26512D
:101D30002A21286F28511A0809E2FF0A03E12751D6
:101D4000F70804E2F80E275F1B0E285BA06B9F6B61
:101D50000001D5EC04F00301A26B27C3A3F300013B
:101D6000A8EC04F0010E0301A26F28C3A3F3000145
:101D7000A8EC04F0020E0301A26F27C3A3F3000135
:101D8000A8EC04F0030E0301A26F28C3A3F3000123
:101D9000A8EC04F0000C020E03019625016E000E63
:101DA0009721036E01C098F3996F020E9625E96E94
:101DB000000E9721EA6EECCF9BF3ED52EFCF9AF332
:101DC0009BC39DF39AC39CF3000193EC09F099C364
:101DD000EAFF98C3E9FF02C0ECFFED5201C0EFFF3C
:101DE000040E03019625016E000E9721036E01C0BB
:101DF00098F3996F040E9625E96E000E9721EA6E0E
:101E0000ECCF9BF3ED52EFCF9AF39BC39DF39AC3B4
:101E10009CF3000193EC09F099C3EAFF98C3E9FF32
:101E200002C0ECFFED5201C0EFFF0A0E0301962540
:101E3000016E000E9721036E01C098F3996F0A0E90
:101E40009625E96E000E9721EA6EECCF9BF3ED52DA
:101E5000EFCF9AF39BC39DF39AC39CF3000193ECDD
:101E600009F099C3EAFF98C3E9FF02C0ECFFED5205
:101E700001C0EFFF000C020E0301136FFE0E13C32F
:101E80008CF38B6F8E6B140E8D6F000161EC09F07B
:101E90000201FE51F00B400803E0000E016E5CD021
:101EA000FE510F0B006E00345B6E5B36FC0E5B1652
:101EB00003014E6B4D6B506B5BC04FF30001B1DE05
:101EC00002C0FDF201C0FCF20301266B5BC025F3EA
:101ED000000123DF0201FC51FD1103E0000E016E41
:101EE0003BD0020E0301976FFE0E966F000153DF89
:101EF0000201F451F5110CE0F4C2E9FFF5C2EAFF6A
:101F00000EC3EFFF0FC3ECFF10C3ECFF11C3ECFFD8
:101F1000060EF625E96E000EF721EA6E0AC3EFFF02
:101F20000BC3ECFF0CC3ECFF0DC3ECFFF8C2E9FFE1
:101F3000F9C2EAFF07C3EFFFFAC2E9FFFBC2EAFFFB
:101F40005B500301005D006E000E015900C0EFFF01
:101F5000EC6E010E016E0201000132EF38F0030158
:101F60008E6B8D6B8C6B8B6BD8908231846F8131D3
:101F7000836F80C386F37FC385F384C303F08351EB
:101F8000D8B484078307031017E086C303F085C322
:101F900000F0020E8527D8B0862B00C0E9FF03C0F1
:101FA000EAFFECCF03F0ED52EF508B2703508C2368
:101FB000000E8D238E23E1D78151010B006E036A41
:101FC000005003100AE085C3E9FF86C3EAFFEF5023
:101FD0008B27000E8C238D238E238EC38AF38DC313
:101FE00089F38CC388F38BC387F38AC384F389C3D3
:101FF00083F3835302E184531FE08E6B8D6B926BEE
:10200000916B8CC390F38BC38FF3026A036A835185
:102010008B258B6F84518C218C6F025091218D6F99
:10202000035092218E6F8EC38AF38DC389F38CC3C4
:1020300088F38BC387F3D9D78CC303F0031E8B516E
:10204000FF0A016E03C002F00001000C93948A9411
:102050003A0E0301A76F000180EC04F00301A76BA7
:10206000000180EC04F001C081F393948A840301A1
:1020700081C301F00001000C03017D5307E17E5391
:1020800005E1FF0E016E026E99D017D07D2D15D09F
:102090007E5313E10001DADF0301826B01C081F39B
:1020A00001C003F0000E006A0006001AFF0E031ABA
:1020B00000C001F003C002F081D0A06B9F6B000153
:1020C000D5EC04F003019C6B000188EC04F001C026
:1020D0007FF3010E03019C6F000188EC04F001C046
:1020E00080F3100E0301A26F7FC3A3F30001A8ECDD
:1020F00004F0110E0301A26F80C3A3F30001A8EC4A
:1021000004F0030180511B081BE303E17F51F70832
:1021100017E3010E7D5D006E000E7E59036E0050C8
:102120007F270350802380511A0809E2FF0A03E148
:102130007F51F70804E2F80E7F5F1B0E805B0AD028
:10214000010E7D5D006E000E7E59036E00507F27EC
:1021500003508023120EA26F7FC3A3F30001A8ECEB
:1021600004F0130E0301A26F80C3A3F30001A8ECD7
:1021700004F01F0E0301A46F300EA56F0001C6EC22
:1021800004F01F0E03019C6F000188EC04F001BAFB
:10219000F8D7160E03019C6F000188EC04F001C013
:1021A0007FF3170E03019C6F000188EC04F001C05F
:1021B00080F303017FC301F080C302F00001000C33
:1021C0005B5003012125236F000E2221246F266F0F
:1021D00023C325F30001A1DD000C88C389F387C365
:1021E0008AF386C38BF385C38CF389C300F08AC35B
:1021F00001F08BC302F08CC303F0000C03017DC31C
:1022000001F07EC303F07DC37FF37EC380F37DC303
:10221000E9FF7EC3EAFFECCF82F3ED52EFCF81F30B
:1022200082C39DF381C39CF3000193EC09F080C34A
:10223000EAFF7FC3E9FF02C0ECFFED5201C0EFFFF0
:10224000020E03017D25016E000E7E21036E01C08A
:102250007FF3806F020E7D25E96E000E7E21EA6E0F
:10226000ECCF82F3ED52EFCF81F382C39DF381C3B4
:102270009CF3000193EC09F080C3EAFF7FC3E9FF00
:1022800002C0ECFFED5201C0EFFF040E03017D25FB
:10229000016E000E7E21036E01C07FF3806F040E7D
:1022A0007D25E96E000E7E21EA6EEFCF81F3ECCF43
:1022B00082F3ECCF83F3ECCF84F384C388F383C33E
:1022C00087F382C386F381C385F3000186DF80C371
:1022D000EAFF7FC3E9FF00C0EFFF01C0ECFF02C0CF
:1022E000ECFF03C0ECFF080E03017D25016E000E1C
:1022F0007E21036E01C07FF3806F080E7D25E96E9D
:10230000000E7E21EA6EEFCF81F3ECCF82F3ECCFAB
:1023100083F3ECCF84F384C388F383C387F382C34E
:1023200086F381C385F3000158DF80C3EAFF7FC3D2
:10233000E9FF00C0EFFF01C0ECFF02C0ECFF03C0EB
:10234000ECFF0E0E03017D25016E000E7E21036E53
:1023500001C07FF3806F0E0E7D25E96E000E7E2199
:10236000EA6EECCF82F3ED52EFCF81F382C39DF39F
:1023700081C39CF3000193EC09F080C3EAFF7FC3A3
:10238000E9FF02C0ECFFED5201C0EFFF100E0301A8
:102390007D25016E000E7E21036E01C07FF3806FEC
:1023A000100E7D25E96E000E7E21EA6EECCF82F3E1
:1023B000ED52EFCF81F382C39DF381C39CF3000103
:1023C00093EC09F080C3EAFF7FC3E9FF02C0ECFF92
:1023D000ED5201C0EFFF120E03017D25016E000ECC
:1023E0007E21036E01C07FF3806F120E7D25E96EA2
:1023F000000E7E21EA6EECCF82F3ED52EFCF81F337
:1024000082C39DF381C39CF3000193EC09F080C368
:10241000EAFF7FC3E9FF02C0ECFFED5201C0EFFF0E
:10242000000CFE0E0301276F266B26510408D8A06E
:102430007AD02651240DF350036A5E0F016E000E10
:10244000032201C024F303C025F324C3E9FF25C3FD
:10245000EAFFEF500A0865E00B0E2425E96E000E36
:102460002521EA6EECCF29F3ED52EFCF28F3020ECF
:102470002025E96E000E2121EA6EECCF03F0ED522B
:10248000EF50285D4EE10350295D4BE124C3E9FF85
:1024900025C3EAFFEF5202E126C327F30D0E2425E0
:1024A000E96E000E2521EA6EECCF29F3ED52EFCF55
:1024B00028F320C3E9FF21C3EAFFECCF03F0ED527C
:1024C000EF50285D2EE10350295D2BE1070E2425F6
:1024D000E96E000E2521EA6EEFCF28F3ECCF29F349
:1024E000ECCF2AF3ECCF2BF3060E2225E96E000E7B
:1024F0002321EA6EEFCF00F0ECCF01F0ECCF02F039
:10250000ECCF03F00050285D0CE10150295D09E19A
:1025100002502A5D06E103502B5D03E126C301F062
:102520006CD0262B82D72751FE0803E1FE0E016EE8
:1025300064D02751240DF350036A5E0F016E000E24
:10254000032201C024F303C025F3010E2425286FC4
:10255000000E2521296FEA6E28C3E9FF23C3E2FF9D
:1025600022C3E1FF0A0E016EE6CFEEFF012EFCD77B
:102570000D0E2425016E000E252120C3E9FF21C385
:10258000EAFFECCF03F0ED52EFCF2AF3EA6E01C081
:10259000E9FF03C0ECFFED522AC3EFFF230E242511
:1025A000E96E000E2521EA6EEF960F0E2425E96EE6
:1025B000000E2521EA6EEF3C01D016D00F0E242527
:1025C000E96E000E2521EA6EEFCF28F328C341F310
:1025D000000102EC00F00F0E03012425E96E000E4D
:1025E0002521EA6EFF0EEF6E230E2425E96E000E04
:1025F0002521EA6EEF8227C301F000015FEF1CF096
:10260000F29A50C041F34FC040F3F28A030140C335
:1026100001F041C302F00001000C0F0E03013E2542
:10262000E96E000E3F21EA6EEF3C01D01DD00F0E87
:102630003E25E96E000E3F21EA6EEFCF40F340C326
:1026400041F3000102EC00F00F0E03013E25E96E9C
:10265000000E3F21EA6EFF0EEF6E230E3E25E96E5F
:10266000000E3F21EA6EEF82070E3E25E96E000E56
:102670003F21EA6EEE52EE52EC6AED52EF6AED52F5
:10268000EF6AED52EF6A0D0E3E25E96E000E3F2116
:10269000EA6EEC6AED52EF6A230E3E25E96E000EFB
:1026A0003F21EA6EEFA604D000012BEC09F00301F4
:1026B000230E3E25E96E000E3F21EA6EEF96210EB5
:1026C0003E25E96E000E3F21EA6EEC6AED521E0EC9
:1026D000EF6E230E3E25E96E000E3F21EA6EEF9865
:1026E000230E3E25E96E000E3F21EA6EEFA006D0D4
:1026F0003EC3E9FF3FC3EAFFEF6A06D03EC3E9FFEE
:102700003FC3EAFF0A0EEF6E100E3E25E96E000E83
:102710003F21EA6EEC6AED52EF6A0001000C1F0ED9
:1027200003019C6F000188EC04F0000E01A6010E6D
:10273000016E00D0000C010E0301A06F190E9F6FF7
:102740000001D5EC04F0190E03019C6F000188EC28
:1027500004F001C07DF30301A06B0E0E9F6F00011A
:10276000D5EC04F00E0E03019C6F000188EC04F020
:1027700001C07FF30F0E03019C6F000188EC04F091
:1027800001C080F3010E0301A06F190E9F6F0001BD
:10279000D5EC04F0190E03019C6F000188EC04F0E5
:1027A00003017D51015CD8B402D00001CCD7A06BED
:1027B0000C0E9F6F0001D5EC04F00C0E03019C6F12
:1027C000000188EC04F001C07DF30D0E03019C6F45
:1027D000000188EC04F001C07EF303017E51805DAE
:1027E00016E303E17F517D5D12E27D517F5D006E56
:1027F0007E518059036E0050FF0AF80F006E1B0EC9
:10280000035600C001F003C002F01DD01CD07D5162
:102810007F5D09E17E51805D06E1F70E016E1B0EC2
:10282000026E11D010D07F517D5D816F80517E5935
:10283000826F010E815D006E000E8259036E00C032
:1028400001F0026E00D0000160EF15F0060E0301EA
:1028500096259C6F1C0E97219D6F010E9C259A6FEB
:10286000000E9D219B6FA06B100E9F6F0001D5EC99
:1028700004F0100E0301A26F9AC3A3F30001A8ECA9
:1028800004F0110E0301A26F9BC3A3F30001A8EC97
:1028900004F0010E0301985D006E000E9959036E5D
:1028A00000509A2703509B23120EA26F9AC3A3F3E2
:1028B0000001A8EC04F0130E0301A26F9BC3A3F365
:1028C0000001A8EC04F01F0E0301A46F300EA56FE9
:1028D0000001C6EC04F01F0E03019C6F000188ECA0
:1028E00004F001BAF8D7160E03019C6F000188ECC2
:1028F00004F001C09BF3170E03019C6F000188ECEC
:1029000004F001C09AF303019AC301F09BC302F0E3
:102910000001000C140E5B6E450E0301826F836B89
:10292000140E8025846F000E8121856F592AD8B43A
:102930005A2A5AC087F359C086F3896B886B640E94
:102940008A6F7FC38BF38D6B8C6B1AC091F319C0A8
:1029500090F318C08FF317C08EF3060E7D25E96E35
:10296000000E7E21EA6EEFCF00F0ECCF01F0ECCF4D
:1029700002F0ECCF03F003C095F302C094F301C062
:1029800093F300C092F3030E976F820E966F0001CF
:10299000CBEC0EF003017DC301F07EC303F07DC3D9
:1029A00096F37EC397F3140E8025986F000E812155
:1029B000996F7EC39BF37DC39AF39C6B9E6F98C304
:1029C0009DF300019FEC0BF0030E0301976F820E45
:1029D00097C3A2F3A16FA46B140EA36F000178EC50
:1029E0000BF00301976B966B996B140E986F0001B7
:1029F0002DDF02C08DF301C08CF34EC096F30301AE
:102A0000986B0A0E976F000124EC0BF0030E030184
:102A1000976F8C0E97C3A2F3A16FA46B020EA36FE6
:102A2000000178EC0BF04EC096F30301986B140E86
:102A3000976F000124EC0BF0000E016E026E000C8B
:102A4000010E03017D6F00016ADE0152F9E003010E
:102A5000543D08D0010E7D6F000116EC0BF001C053
:102A600054F30301543D01D000D154C396F3986B45
:102A7000140E976F000124EC0BF048C35AF347C3C0
:102A800059F34AC35CF349C35BF34EC360F34DC3D0
:102A90005FF34CC35EF34BC35DF352C364F351C3A6
:102AA00063F350C362F34FC361F33F0E0301661536
:102AB000666FF00E6515656F53C366F300013BD674
:102AC00002C068F301C067F30301685303E1675173
:102AD000280805E2280E675F000E685B02D0686B6D
:102AE000676B6A6B696B6C6B6B6B030E7E6F590E59
:102AF0007D6F0001FEEC10F0140E03015527000E4F
:102B0000562353A30FD0040E5527000E5623020E52
:102B10006D6F040E6E6F6F6F706B0F0E6515600931
:102B2000656F04D00F0E65155009656F1AC074F3F8
:102B300019C073F318C072F317C071F3060E452560
:102B4000E96E000E4621EA6EEFCF00F0ECCF01F007
:102B5000ECCF02F0ECCF03F003C078F302C077F3C0
:102B600001C076F300C075F3796B060E7A6F56C319
:102B70007CF355C37BF37CC39DF37BC39CF30001C3
:102B800093EC09F002C07CF301C07BF3030E030158
:102B90007E6F710E7EC380F37F6F826B0C0E816F30
:102BA0000001AFEC0FF001C069F30301691F02C01F
:102BB0006AF36A1F6AC358F369C357F346C37EF3C7
:102BC00045C37DF3060E7F6F56C381F355C380F373
:102BD0000001A0DE030E03017E6F590E7EC3A2F337
:102BE000A16FA46B140EA36F000178EC0BF003012E
:102BF00053A30DD0030E7E6F6D0E7EC3A2F3A16FA3
:102C0000A46B040EA36F000178EC0BF0030154C316
:102C100096F3986B140E976F000124EC0BF056C3DB
:102C20007EF355C37DF33CEC10F002C058F301C0B5
:102C300057F354C396F30301986B240E976F00016A
:102C400024EC0BF058C3A0F369EC0BF057C3A0F3CE
:102C500069EC0BF054C396F30301986B976B00017A
:102C600024EC0BF0FEEC0BF003010001000C03015F
:102C70002051240DF350036A5E0F016E000E0322F3
:102C800001C037F303C038F3396B1E0E3725E96EE8
:102C9000000E3821EA6EEF6A1F0E3725016E000E16
:102CA0003821036E01C03EF33F6F0001A9DC3FC332
:102CB000EAFF3EC3E9FF02C0ECFFED5201C0EFFFA7
:102CC000210E03013725E96E000E3821EA6EEC6A09
:102CD000ED521E0EEF6E0D0E2325E96E000E24211F
:102CE000EA6EEFA41ED000012BEC09F0030137C3FC
:102CF00001F038C303F037C33EF338C33FF3230E6C
:102D00003725E96E000E3821EA6EEFA002D0000EE2
:102D100001D0010E3FC3EAFF3EC3E9FFEF6E9DEF16
:102D20001BF0160E3725E96E000E3821EA6EEFCF44
:102D300000F0ECCF01F0ECCF02F0ECCF03F003C0D9
:102D40002EF302C02DF301C02CF300C02BF30E0EA6
:102D50002325E96E000E2421EA6EECCF03F0ED523C
:102D6000EFCF3EF303C03FF3406B416B080E2325CA
:102D7000E96E000E2421EA6EEFCF00F0ECCF01F0F7
:102D8000ECCF02F0ECCF03F000502B5D006E015051
:102D90002C59016E02502D59026E03502E59036EAC
:102DA00000503E5F01503F5B0250405B0350415B6F
:102DB000100E3725E96E000E3821EA6EECCF03F0D5
:102DC000ED52EFCF00F003C001F0026A036A005039
:102DD0003E5D3A6F01503F593B6F025040593C6F86
:102DE000035041593D6F3DBF01D00AD0140E372525
:102DF000E96E000E3821EA6EEC6AED52EF6A0AD0F5
:102E0000140E3725E96E000E3821EA6E27C3EFFF56
:102E100028C3ECFF37C3E9FF38C3EAFFEF2CBED06D
:102E20000D0E2325E96E000E2421EA6EEFB212D0BA
:102E300000012BEC09F00D0E03012325E96E000EB5
:102E40002421EA6EEFA804D0040E396F61EF1BF065
:102E50009DEF1BF01A0E3725016E000E382101C0C0
:102E60003EF33F6F040E2325E96E000E2421EA6E27
:102E7000EFCF40F3ECCF41F3ECCF42F3ECCF43F391
:102E80002551402726514123000E42234323010EA2
:102E90004025006E000E4121016E000E4221026E9F
:102EA000000E43213FC3EAFF3EC3E9FF00C0EFFF2E
:102EB00001C0ECFF02C0ECFFEC6E1A0E3725E96E84
:102EC000000E3821EA6EEFCF00F0ECCF01F0ECCF2E
:102ED00002F0ECCF03F003C02AF302C029F301C0D3
:102EE00028F300C027F30D0E2325E96E000E2421E0
:102EF000EA6EEFB80ED037C3E9FF38C3EAFF020E1F
:102F0000EF6E00012BEC09F0120E0301396F61EF37
:102F10001BF037C3E9FF38C3EAFF030EEF6E100E54
:102F2000396F140E3725016E000E3821036E3F6F86
:102F30000E0E2325E96E000E2421EA6EECCF03F07D
:102F4000ED52EFCF40F33FC3EAFF01C0E9FF03C0FA
:102F5000ECFFED5240C3EFFF255126111AE0230E7E
:102F60003725E96E000E3821EA6EEF86120E3725FE
:102F7000E96E000E3821EA6E26C3ECFFED5225C340
:102F8000EFFF230E3725E96E000E3821EA6EEF843D
:102F900004D000012BEC09F0030193D337C3E9FF00
:102FA00038C3EAFFEF52D8A4C4D000012BEC09F0DB
:102FB0000D0E03012325E96E000E2421EA6EEFB207
:102FC00003D0040E396F7DD31A0E3725016E000E23
:102FD000382101C03EF33F6F040E2325E96E000E39
:102FE0002421EA6EEFCF40F3ECCF41F3ECCF42F374
:102FF000ECCF43F32551402726514123000E4223B5
:103000004323010E4025006E000E4121016E000E8B
:103010004221026E000E43213FC3EAFF3EC3E9FF97
:1030200000C0EFFF01C0ECFF02C0ECFFEC6E140E1D
:103030003725016E000E3821036E3F6F0E0E2325DB
:10304000E96E000E2421EA6EECCF03F0ED52EFCFD3
:1030500040F33FC3EAFF01C0E9FF03C0ECFFED52BC
:1030600040C3EFFF010E37253E6F000E38213F6F42
:10307000EA6E3EC3E9FF22C3E2FF21C3E1FF0A0E6D
:10308000016EE6CFEEFF012EFCD70D0E3725016E47
:10309000000E382123C3E9FF24C3EAFFECCF03F07D
:1030A000ED52EFCF40F3EA6E01C0E9FF03C0ECFF41
:1030B000ED5240C3EFFF37C3E9FF38C3EAFF020E0A
:1030C000EF6E160E3725E96E000E3821EA6EEE52CD
:1030D000EE52EE52EDCF03F0EDCF02F0EDCF01F066
:1030E000EFCF00F0010EEE26000EEE22EE22ED22D2
:1030F00003C02EF302C02DF301C02CF300C02BF34C
:103100001A0E3725E96E000E3821EA6EEFCF00F077
:10311000ECCF01F0ECCF02F0ECCF03F003C02AF3C8
:1031200002C029F301C028F300C027F3120E396F43
:10313000C8D21A0E3725E96E000E3821EA6EEFCF9D
:1031400000F0ECCF01F0ECCF02F0ECCF03F003C0C5
:1031500032F302C031F301C030F300C02FF3160E7A
:103160003725E96E000E3821EA6EEFCF00F0ECCF84
:1031700001F0ECCF02F0ECCF03F003C036F302C055
:1031800035F301C034F300C033F3040E2325E96E98
:10319000000E2421EA6EEFCF00F0ECCF01F0ECCF6F
:1031A00002F0ECCF03F003C02AF302C029F301C000
:1031B00028F300C027F3026A036A25512727265106
:1031C00028230250292303502A23160E3725E96E9F
:1031D000000E3821EA6EEFCF00F0ECCF01F0ECCF1B
:1031E00002F0ECCF03F003C02EF302C02DF301C0B8
:1031F0002CF300C02BF3040E2325E96E000E2421CE
:10320000EA6EEFCF3EF3ECCF3FF3ECCF40F3ECCFE1
:1032100041F32F513E5DD8A446D230513F5DD8A432
:1032200042D23151405DD8A43ED23251415DD8A442
:103230003AD237C3E9FF38C3EAFFEF50020843E14F
:103240000D0E2325E96E000E2421EA6EEFA836D07C
:103250001A0E3725E96E000E3821EA6E27C3EFFFFC
:1032600028C3ECFF29C3ECFF2AC3ECFF37C3E9FFF7
:1032700038C3EAFF030EEF6E255126111AE0230E24
:103280003725E96E000E3821EA6EEF86120E3725DB
:10329000E96E000E3821EA6E26C3ECFFED5225C31D
:1032A000EFFF230E3725E96E000E3821EA6EEF841A
:1032B00004D000012BEC09F0030104D000012BEC39
:1032C00009F00301EFD11A0E3725E96E000E3821FF
:1032D000EA6E27C3EFFF28C3ECFF29C3ECFF2AC324
:1032E000ECFF37C3E9FF38C3EAFFEF500308D8A467
:1032F000E2D00D0E2325E96E000E2421EA6EEFA820
:103300002ED0230E3725E96E000E3821EA6EEFB27B
:1033100026D00F0E3725E96E000E3821EA6EEF3CFD
:1033200001D01DD00F0E3725E96E000E3821EA6E50
:10333000EFCF3EF33EC341F3000102EC00F00F0E6D
:1033400003013725E96E000E3821EA6EFF0EEF6E9D
:10335000230E3725E96E000E3821EA6EEF820D0E3E
:103360002325E96E000E2421EA6EEFA058D0110E3D
:10337000396F160E3725E96E000E3821EA6EEE52CF
:10338000EE52EE52EDCF03F0EDCF02F0EDCF01F0B3
:10339000EFCF00F0010EEE26000EEE22EE22ED221F
:1033A00003C02EF302C02DF301C02CF300C02BF399
:1033B0001A0E3725E96E000E3821EA6E010EEF2451
:1033C000006E000EEC20016E000EEC20026E000E6E
:1033D000EC20ED52ED52ED5200C0EFFF01C0ECFFCA
:1033E00002C0ECFFEC6E1A0E3725E96E000E382194
:1033F000EA6EEFCF00F0ECCF01F0ECCF02F0ECCFB3
:1034000003F003C02AF302C029F301C028F300C06F
:1034100027F337C3E9FF38C3EAFF090EEF6E2551E2
:10342000261144E0230E3725E96E000E3821EA6E9E
:10343000EFB61BD0230E3725E96E000E3821EA6E59
:10344000EF86120E3725E96E000E3821EA6E26C38C
:10345000ECFFED5225C3EFFF230E3725E96E000E7A
:103460003821EA6EEF84398920D0160E3725E96EAF
:10347000000E3821EA6E33C3EFFF34C3ECFF35C3CF
:10348000ECFF36C3ECFF1A0E3725E96E000E38212B
:10349000EA6E2FC3EFFF30C3ECFF31C3ECFF32C342
:1034A000ECFF00012BEC09F0030104D000012BEC30
:1034B00009F00301F7D037C3E9FF38C3EAFFEF5043
:1034C000090815E100012BEC09F00D0E030123257D
:1034D000E96E000E2421EA6EEFA808D038C33FF34E
:1034E00037C33EF300010DEC13F00301DBD037C30B
:1034F000E9FF38C3EAFFEF5004086AE100012BEC52
:1035000009F00D0E03012325E96E000E2421EA6E59
:10351000EFA04DD0100E396F1A0E3725E96E000E50
:103520003821EA6E010EEF24006E000EEC20016ED1
:10353000000EEC20026E000EEC20ED52ED52ED522A
:1035400000C0EFFF01C0ECFF02C0ECFFEC6E1A0EF2
:103550003725E96E000E3821EA6EEFCF00F0ECCF90
:1035600001F0ECCF02F0ECCF03F003C02AF302C06D
:1035700029F301C028F300C027F30D0E2325E96EBF
:10358000000E2421EA6EEFA809D038C33FF337C3F9
:103590003EF300010DEC13F008D0030137C3E9FF3F
:1035A00038C3EAFF060EEF6E000110D003010D0EC6
:1035B0002325E96E000E2421EA6EEFA806D037C35A
:1035C000E9FF38C3EAFF050EEF6E00016AD0030180
:1035D00037C3E9FF38C3EAFFEF50050848E10001AF
:1035E0002BEC09F00D0E03012325E96E000E2421BA
:1035F000EA6EEFA03BD0100E396F1A0E3725E96E38
:10360000000E3821EA6E010EEF24006E000EEC2051
:10361000016E000EEC20026E000EEC20ED52ED5219
:10362000ED5200C0EFFF01C0ECFF02C0ECFFEC6EFA
:103630001A0E3725E96E000E3821EA6EEFCF00F042
:10364000ECCF01F0ECCF02F0ECCF03F003C02AF393
:1036500002C029F301C028F300C027F338C33FF3A9
:1036600037C33EF300010DEC13F003011BD037C349
:10367000E9FF38C3EAFFEF50060814E100012BEC24
:1036800009F00D0E03012325E96E000E2421EA6ED8
:10369000EFA808D038C33FF337C33EF300010DEC69
:1036A00013F003010ED000012BEC09F0100E030102
:1036B000396F32C32AF331C329F330C328F32FC340
:1036C00027F339533AE0020E2325E96E000E242138
:1036D000EA6EECCF3FF3ED52EFCF3EF323C3E9FFA9
:1036E00024C3EAFFECCF41F3ED52EFCF40F322C306
:1036F00046F321C345F33FC348F33EC347F341C3F9
:103700004AF340C349F32EC34EF32DC34DF32CC3EC
:103710004CF32BC34BF32AC352F329C351F328C3F1
:1037200050F327C34FF339C353F3FF0E546F566B57
:10373000556B000120EC15F00301000176EF1CF041
:10374000060E0201F425E96E000EF521EA6EEFCFB8
:1037500000F0ECCF01F0ECCF02F0ECCF03F003C0AF
:1037600011F302C010F301C00FF300C00EF3F6C254
:10377000E9FFF7C2EAFFEFCF00F0ECCF01F0ECCFAA
:1037800002F0ECCF03F003C015F302C014F301C044
:1037900013F300C012F30301166B060E176FF9C284
:1037A00019F3F8C218F319C39DF318C39CF3000171
:1037B00093EC09F002C019F301C018F3030E0301E2
:1037C000216F0E0E21C380F37F6F826B0C0E816F11
:1037D0000001AFEC0FF001C01BF303011B1F02C07F
:1037E0001CF31C1FF9C27EF3F8C27DF300013CEC10
:1037F00010F002C01EF301C01DF303011E511B5D3A
:1038000003E11D511C5D07E000012BEC09F0010EE6
:10381000016E73D00301226B216B0001E0EC10F00C
:10382000020E0301216FFA0E21C38CF38B6F8E6B96
:10383000140E8D6F000161EC09F0020E03017E6F22
:10384000FA0E7D6F0001FEEC10F0030106390F0B3C
:10385000006E0034206F2037FC0E2017140E205D00
:103860001F6F1F510201F85D0301206F000E02015E
:10387000F9590301216F140E205D0201F86F000E4B
:10388000030121590201F96F030106390F0B006E84
:103890000034206F2037FC0E2017226B20C321F349
:1038A0000001E0EC10F0020E0301216FFA0E206F10
:1038B000F5C223F3F4C222F3000111EF12F001C0AC
:1038C0001AF303011A51FE0813E01AC320F3F5C2DC
:1038D00022F3F4C221F3020E246FFA0E236FF9C211
:1038E00026F3F8C225F3000137EF16F004D00301E8
:1038F00000012BEC09F0010E016E5EEF38F0040EB2
:1039000003014C25016E000E4D21036E01C04EF3E4
:103910004F6F040E4C25E96E000E4D21EA6EECCF80
:1039200051F3ED52EFCF50F351C39DF350C39CF3CD
:10393000000193EC09F04FC3EAFF4EC3E9FF02C058
:10394000ECFFED5201C0EFFF060E03014C25016EA6
:10395000000E4D21036E01C04EF34F6F060E4C2535
:10396000E96E000E4D21EA6EECCF51F3ED52EFCF30
:1039700050F351C39DF350C39CF3000193EC09F045
:103980004FC3EAFF4EC3E9FF02C0ECFFED5201C096
:10399000EFFF020E03014C25016E000E4D21036E58
:1039A00001C04EF34F6F020E4C25E96E000E4D2103
:1039B000EA6EECCF51F3ED52EFCF50F351C39DF3CC
:1039C00050C39CF3000193EC09F04FC3EAFF4EC3D0
:1039D000E9FF02C0ECFFED5201C0EFFF000C030E47
:1039E00003014D6F4C6B8C6F4CC38BF38E6B080EC9
:1039F0008D6F000161EC09F003014B6B4A6BFBC258
:103A000003F0FAC2E9FFFBC2EAFFEFCF4CF3030178
:103A10004E6B140E4D6F506B4CC34FF3000111EC05
:103A20000EF002C049F301C048F30201FAC2E9FFF7
:103A3000FBC2EAFF080EEF5CEF6EFBC203F0FAC2B6
:103A4000E9FFFBC2EAFFEFCF4CF3F9C28CF3F8C2F7
:103A50008BF303018E6B4CC38DF3000161EC09F015
:103A6000030E03014D6F4C6B000149DF0201F6C2EA
:103A7000E9FFF7C2EAFF00C3EFFFFCC2E9FFFDC2A6
:103A8000EAFF05C3ECFFED5204C3EFFFFEC2E9FFFE
:103A9000FFC2EAFF07C3ECFFED5206C3EFFF0301CD
:103AA0004A51485D03E14B51495D02E0000E01D0EF
:103AB000010E016E000186EF38F0010E03017D6FEB
:103AC000000116EC0BF001C048F30301483D01D0A2
:103AD00080D048C396F3986B140E976F000124ECC6
:103AE0000BF0036A0201F951080F0301466F000E43
:103AF0000320476F0201FF6BF6C2FEF20301016B68
:103B0000006BFBC203F3FAC202F3FDC205F3FCC271
:103B100004F3030EEA6E060EE96EF8C2E2FFF7C286
:103B2000E1FF0201F951016E04E0E6CFEEFF012E44
:103B3000FCD7020E03014D6FFE0E4C6F0001DFDE5D
:103B4000080E0201F92503014A6B496FF5C27EF3A5
:103B5000F4C27DF3010E7F6F4AC381F349C380F342
:103B600000018AEC14F0020E03014A6FFE0E4AC3F4
:103B7000A2F3A16F47C3A4F346C3A3F3000178ECFB
:103B80000BF00301976B140E966F47C399F346C36E
:103B900098F3000126EC14F002C001F301C000F319
:103BA00048C396F30301986B160E976F000124EC3F
:103BB0000BF0030E03014A6F496BA26F49C3A1F3D7
:103BC000A46B020EA36F000178EC0BF0FEEC0BF07F
:103BD00003010001B3EF38F00201FF6BF46BF45105
:103BE0000408D8A04FD2F451240DF350036A5E0F9D
:103BF000016E000E032201C0F9F203C0FAF2230E97
:103C0000F925E96E000EFA21EA6EEFB608D0230E10
:103C1000F925E96E000EFA21EA6EEFA801D030D244
:103C2000F9C2E9FFFAC2EAFFEF500A0812E0F9C24E
:103C3000E9FFFAC2EAFFEF520DE1230EF925E96E22
:103C4000000EFA21EA6E000EEFB0010E010B010822
:103C500001E116D2F9C2E9FFFAC2EAFFEF50030808
:103C60000DE1230EF925E96E000EFA21EA6E000E31
:103C7000EFB0010E010B010801E102D2000100ECDE
:103C800013F002C0F8F201C0F7F21F0E0201F9258D
:103C9000E96E000EFA21EA6EECCF03F0ED52EFCFA1
:103CA00001F0F851035C04E305E10150F75D02E324
:103CB000000E01D0010E036A031021E01F0EF9254A
:103CC000E96E000EFA21EA6EECCF03F0ED52EF50F0
:103CD000FF080301006FFF0E0354016F0201F7514B
:103CE000030100270201F85103010123010E002501
:103CF000016E000E0121036E015011D002011F0E52
:103D0000F925E96E000EFA21EA6EECCF03F0ED52D0
:103D1000EF50F75D006E0350F859036E005002013A
:103D2000F56F03C0F6F2210EF925E96E000EFA21B7
:103D3000EA6EECCF03F0ED52EFCF01F0F651035CE9
:103D400005E303E1F551015C01E39AD1010E0301A2
:103D50007D6F00018FEC13F0015201E193D11F0E32
:103D60000201F925016E000EFA21036E01C000F375
:103D70000301016F000100EC13F001C3EAFF00C36F
:103D8000E9FF02C0ECFFED5201C0EFFF210E02017E
:103D9000F925E96E000EFA21EA6ED890EF34026E32
:103DA000EC34036E0250ED52EF6E03C0ECFF1E0EBA
:103DB000F925E96E000EFA21EA6EEF2AF9C2E9FF51
:103DC000FAC2EAFF010EEF5CF70FD8B0C8D0090FB6
:103DD000000145EF20F0020E0201FF6FC0D01E0E61
:103DE0000201F925E96E000EFA21EA6EEF50030890
:103DF00003E3120EFF6F16D0230EF925E96E000EB5
:103E0000FA21EA6EEFA006D0F9C2E9FFFAC2EAFF92
:103E1000EF6A08D0020EFF6FF9C2E9FFFAC2EAFFAB
:103E2000010EEF6E9CD01E0E0201F925E96E000E08
:103E3000FA21EA6EEF50030822E30F0EF925E96E2E
:103E4000000EFA21EA6EEF3C01D014D00F0EF925D6
:103E5000E96E000EFA21EA6EEFCF00F300C396F38D
:103E60000301986B976B000124EC0BF0FEEC0BF058
:103E700004D00201100EFF6F000128D002010F0EC6
:103E8000F925E96E000EFA21EA6EEF3C01D016D05A
:103E90000F0EF925E96E000EFA21EA6EEFCF00F35E
:103EA00000C341F3000102EC00F00F0E0201F925FE
:103EB000E96E000EFA21EA6EFF0EEF6E110EFF6F33
:103EC000F9C2E9FFFAC2EAFF040EEF6E020147D021
:103ED0001E0E0201F925E96E000EFA21EA6EEF507E
:103EE000030803E3010EFF6F08D0FAC23FF3F9C2E3
:103EF0003EF300010DEC13F0020131D0FAC23FF3A2
:103F0000F9C23EF30DEC13F0020129D0FAC23FF3DF
:103F1000F9C23EF30DEC13F0020121D0010E0201B3
:103F2000FF6FF9C2E9FFFAC2EAFF090EEF6E17D080
:103F30001E0E0201F925E96E000EFA21EA6EEF501D
:103F4000030803E3010EFF6F08D0FAC23FF3F9C282
:103F50003EF300010DEC13F0020101D00201FF530A
:103F6000D8B48ED0FFA917D0160EF925E96E000E31
:103F7000FA21EA6EEFCF00F0ECCF01F0ECCF02F0C7
:103F8000ECCF03F003C0FEF202C0FDF201C0FCF270
:103F900000C0FBF21FD0160EF925E96E000EFA21C3
:103FA000EA6EEE52EE52EE52EDCF03F0EDCF02F09C
:103FB000EDCF01F0EFCF00F0010EEE26000EEE2265
:103FC000EE22ED2203C0FEF202C0FDF201C0FCF2BF
:103FD00000C0FBF2010EF925016E000EFA21036EFE
:103FE00001C000F30301016F0B0E0201F925E96E18
:103FF000000EFA21EA6EECCF03F3ED52EFCF02F39D
:104000000D0EF925E96E000EFA21EA6EECCF05F3EC
:10401000ED52EFCF04F31A0EF925E96E000EFA21E6
:10402000EA6EEFCF06F3ECCF07F3ECCF08F3ECCF5B
:1040300009F303C046F301C045F303C348F302C3C9
:1040400047F305C34AF304C349F3FEC24EF3FDC26E
:104050004DF3FCC24CF3FBC24BF309C352F308C34C
:1040600051F307C350F306C34FF3FFC253F3FF0EE0
:104070000301546F566B556B000120EC15F00201E3
:10408000F42BADD50001BDEF38F0F2CF0DF0F29E6C
:10409000E824F76AF736AF0FF66E400EF7220A00F3
:1040A000F550FA6E0800F5500DBEF28EF96ED63D51
:1040B000DE3D263ED03EFC3EFC3E0C3F1C3F303FEA
:1040C0000201FC51240DF350FE6BFD6F5E0EFD25C9
:1040D000E96E000EFE21EA6EEF50030802E0000ECA
:1040E00001D0010E016E0001000C0201FC51240DF3
:1040F000F350FE6BFD6F230EFD27000EFE235E0EB8
:10410000FD25E96E000EFE21EA6E000EEFB6010EEF
:10411000016E0001000C0201FC51240DF350036AF2
:104120005E0F016E000E032201C0FFF203C000F318
:10413000230EFF25E96E000E03010021EA6EEFA6B3
:1041400059D0230E0201FF25E96E000E0301002164
:10415000EA6EEFA40FD0226B140E216F0001E0EC89
:1041600010F0230E0201FF25E96E000E030100216D
:10417000EA6EEF94120E0201FF25E96E000E0301B4
:104180000021EA6EECCF02F3ED52EFCF01F30153C1
:1041900011E102530FE100012BEC09F0230E0201A3
:1041A000FF25E96E000E03010021EA6EEF96000E76
:1041B000016E22D0120E0201FF25E96E000E0301EE
:1041C0000021EA6EFF0EEF2602E2EE52ED06FEC27D
:1041D00003F0FDC201F3FEC202F3000126EC10F071
:1041E00002C3EAFF01C3E9FF01C0EFFF010E016E48
:1041F000030102D0000E016E0001000C07C30BF397
:1042000006C30AF30BC303F003010AC3E9FF0BC3A0
:10421000EAFFEF5230E009C30DF308C30CF30DC3FE
:1042200003F00CC3E9FF0DC3EAFFEF520AE10651A8
:104230000A5D006E07510B59036E00C001F023D0D8
:1042400010D00AC3E9FF0BC3EAFFEFCF0EF30DC393
:1042500003F00CC3E9FF0DC3EAFFEF500E5D01E16F
:1042600004D00C2BD8B40D2BDAD70A2BD8B40B2BD7
:104270000001C8D7030106510A5D006E07510B59B2
:10428000036E00C001F000019CEF21F007C30BF3A7
:1042900006C30AF30BC303F003010AC3E9FF0BC310
:1042A000EAFFEF522AE009C30DF308C30CF30DC374
:1042B00003F00CC3E9FF0DC3EAFFEF5218E00AC395
:1042C000E9FF0BC3EAFFEFCF0EF30DC303F00CC3FE
:1042D000E9FF0DC3EAFFEF500E5D05E10AC301F0EF
:1042E0000BC302F00DD00C2BD8B40D2BE0D70A2B4A
:1042F000D8B40B2B0001CED70301000E016E026E65
:104300000001BDEF21F00201FE51FF1104E0FFC2E8
:1043100003F0FE5103D049C003F048500301026F7F
:1043200003C003F303C307F302C306F301C309F396
:1043300000C308F3000162D7015003010227000EF9
:10434000032303C303F002C3E9FF03C3EAFFEF52F1
:104350000AE148C0E9FF49C0EAFF200EEF6E000EF7
:10436000016E026E27D003C307F302C306F301C335
:1043700009F300C308F3000189D702C005F301C0A7
:1043800004F305C303F0030104C3E9FF05C3EAFF17
:10439000EF5208E004C3E9FF05C3EAFFEF6A042B0C
:1043A000D8B4052B05C349F004C348F002C301F09B
:1043B00003C302F00001000C0201FCC2E9FFFDC2D0
:1043C000EAFFEFCF00F3FFC203F0FEC2E9FFFFC236
:1043D000EAFFEF500301005D16E1FDC203F00201A8
:1043E000FCC2E9FF03C0EAFFEF5203E1000E016ED9
:1043F00022D0FDC203F0FC51FC2BD8B4FD2BFE2BC8
:10440000D8B4FF2BDAD7FDC203F00201FCC2E9FFEA
:10441000FDC2EAFFEFCF00F3FFC203F0FEC2E9FFE7
:10442000FFC2EAFFEF500301005D02E2FF0E01D080
:10443000010E016E02010001000C4BC34DF34AC393
:104440004FF349C34EF303014C51000813E24FC32D
:1044500003F04EC3E9FF4FC3EAFF4D51EF5C05E1A6
:104460004EC301F04FC302F008D04E2BD8B44F2BEF
:104470004C07EAD7000E016E026E0001000C03012A
:104480004B514D19800B4F6F4BAF05D04A1F4B1F3F
:104490004A2BD8B44B2B4DAF05D04C1F4D1F4C2B86
:1044A000D8B44D2B4A514C03F3CF01F0F4CF00F0B8
:1044B0004D03F35000264B514C03F3500020026E85
:1044C0004FAF05D0011E021E012AD8B4022A0001F6
:1044D000000C0301226B216B300E246F310E256F0F
:1044E000320E266F330E276F340E286F350E296F6C
:1044F000360E2A6F370E2B6F380E2C6F390E2D6F3C
:10450000610E2E6F620E2F6F630E306F640E316F6F
:10451000650E326F660E336F670E346F680E356F3F
:10452000690E366F6A0E376F6B0E386F6C0E396F0F
:104530006D0E3A6F6E0E3B6F6F0E3C6F700E3D6FDF
:10454000710E3E6F730E3F6F740E406F750E416FAC
:10455000760E426F770E436F780E446F790E456F7B
:104560007A0E466F476B17C31CF316C31BF31CC3AD
:1045700003F01BC3E9FF1CC3EAFFEF50200804E16E
:104580001B2BD8B41C2BF3D71CC303F01BC3E9FFB0
:104590001CC3EAFFEF502D0809E01CC303F01BC346
:1045A000E9FF1CC3EAFFEF502B080BE11CC303F02B
:1045B0001B511B2BD8B41C2BE96E03C0EAFFEF5034
:1045C00001D02B0E236F23512D080AE01ABF08D00B
:1045D0001A2D01D005D01ABF05D01A51240802E2C5
:1045E0000BD184D01A534CE01A5110081FE11CC3A0
:1045F00003F01BC3E9FF1CC3EAFFEF50300816E1CC
:10460000010E1B25E96E000E1C21EA6EEF507808A2
:1046100009E0010E1B25E96E000E1C21EA6EEF5029
:10462000580804E1020E1B27000E1C231A5108082B
:104630000DE11CC303F01BC3E9FF1CC3EAFFEF50ED
:10464000300804E1010E1B27000E1C231A5102083A
:1046500016E11CC303F01BC3E9FF1CC3EAFFEF50C4
:1046600030080DE1010E1B25E96E000E1C21EA6EDB
:10467000EF50620804E1020E1B27000E1C2336D007
:104680001CC303F01BC3E9FF1CC3EAFFEF50300853
:1046900003E00A0E1A6F2AD0010E1B25E96E000EE8
:1046A0001C21EA6EEF50780809E0010E1B25E96E27
:1046B000000E1C21EA6EEF50580807E1100E1A6F29
:1046C000020E1B27000E1C2311D0010E1B25E96EC4
:1046D000000E1C21EA6EEF50620806E1020E1A6F0E
:1046E0001B27000E1C2302D0080E1A6F1CC31EF3DA
:1046F0001BC31DF31CC303F01BC3E9FF1CC3EAFF6C
:10470000EF50300804E11B2BD8B41C2BF3D71CC38B
:1047100003F01BC3E9FF1CC3EAFFEFCF48F3485186
:10472000400806E248515A0803E34851200901D0E5
:104730004851486F030E4A6F240E496F48C34BF32C
:104740001AC34CF3000179DE02C020F301C01FF34D
:1047500003011F5302E1205349E0036A1A51006E1E
:10476000E8BE0306486F03C049F322C34BF321C3DD
:104770004AF303C04DF34C6F000181DE01C048F3E2
:10478000240E03011F5D006E030E2059036E0050BE
:104790000124016E0250032201C021F303C022F361
:1047A0001B2BD8B41C2B1CC303F01BC3E9FF1CC379
:1047B000EAFFEFCF48F34851400806E248515A0853
:1047C00003E34851200901D04851486F030E4A6F56
:1047D000240E496F48C34BF31AC34CF300012DDE7E
:1047E00002C020F301C01FF3B3D703011B511D5DAD
:1047F00013E11C511E5D10E11851191109E018C395
:10480000E9FF19C3EAFF17C3ECFFED5216C3EFFF30
:10481000000E016E026E10D01851191109E018C374
:10482000E9FF19C3EAFF1CC3ECFFED521BC3EFFF06
:1048300021C301F022C302F00001E1EF24F02CC3F8
:104840002EF32BC32DF32EC303F003012DC3E9FF79
:104850002EC3EAFFEF5206E02D2BD8B42E2B000119
:10486000F2D703012B512D5D006E2C512E59036E92
:1048700000C001F00001000C1AC31FF319C31EF39E
:104880001CC321F31BC320F3030121511F5D33E33C
:1048900003E11E51205D2FE21D512025016E000E07
:1048A0002121036E1F51035C26E303E101501E5DCD
:1048B00022E21D511E27000E1F231D512027000E2E
:1048C00021231D51000816E21E51D8B41F071E07F0
:1048D0002051D8B42107200720C3E9FF21C3EAFFF4
:1048E000EFCF24F31FC3EAFF1EC3E9FF24C3EFFF8A
:1048F0001D07E7D71FD01D5100081CE21FC303F09E
:104900001E511E2BD8B41F2B226F03C023F321C3CB
:1049100003F02051202BD8B4212BE96E03C0EAFF0D
:10492000EFCF24F323C3EAFF22C3E9FF24C3EFFF41
:104930001D07E1D719C301F01AC302F000010AEF05
:1049400025F00301136B0EC310F30DC30FF30EC359
:1049500003F00DC3E9FF0EC3EAFFEFCF14F31453C6
:1049600060E014512B080CE10EC303F00D510D2B28
:10497000D8B40E2BE96E03C0EAFF200EEF6E4FD0C5
:104980001451250849E1010E0D25166F000E0E2168
:10499000176F030EEA6E110EE96E17C3E2FF16C31E
:1049A000E1FF020E016EE6CFEEFF012EFCD7030EF3
:1049B000176F110E166F196B186B100E1A6F00011E
:1049C00088D501C015F303010EC303F00D510D2B63
:1049D000D8B40E2BE96E03C0EAFF15C3EFFF020E39
:1049E0000D25166F000E0E21176F0EC32CF30DC38D
:1049F0002BF3000124DF010E015C0301186F0EC3CD
:104A00001AF30DC319F317C31CF316C31BF31D6F61
:104A1000000132D704D003010D2BD8B40E2B0301B3
:104A200096D70FC301F010C302F00001000CEF5243
:104A300010E0EACF16F3E9CF15F3EFCF21F3FAEC4C
:104A400003F016C3EAFF15C3E9FFE92AD8B4EA2A3E
:104A5000EED7000C030115C3E9FF16C3EAFFEFCF41
:104A600019F318C303F017C3E9FF18C3EAFFEF50A7
:104A7000195D48E016C303F015C3E9FF16C3EAFF4A
:104A8000EFCF19F31951400803E219515A0806E211
:104A9000195160084CE219517A0849E318C303F030
:104AA00017C3E9FF18C3EAFFEFCF19F31951400804
:104AB00003E219515A0806E21951600838E2195107
:104AC0007A0835E315C3E9FF16C3EAFFEFCF19F300
:104AD00018C303F017C3E9FF18C3EAFF200EEF2441
:104AE000195D10E017C3E9FF18C3EAFFEFCF19F310
:104AF00016C303F015C3E9FF16C3EAFF200EEF2427
:104B0000195D15E116C303F015C3E9FF16C3EAFFEB
:104B1000EF5203E1000E016E1FD016C303F01551D2
:104B2000152BD8B4162B172BD8B4182B94D716C323
:104B300003F015C3E9FF16C3EAFFEFCF19F318C35B
:104B400003F017C3E9FF18C3EAFFEF50195D02E253
:104B5000FF0E01D0010E016E0001000C006A016A17
:104B6000026A036A0301296B2A6B2B6B2C6B285199
:104B70002711261125112CE0200E2D6FD8902137FA
:104B800022372337243729372A372B372C37285118
:104B90002C5D08E127512B5D05E126512A5D02E1DC
:104BA0002551295D0FE32551295F2651D8A0263DC7
:104BB0002A5F2751D8A0273D2B5F2851D8A0283D38
:104BC0002C5FD88000360136023603362D2FD6D71B
:104BD000030EEA6E290EE96E0001000CE950030194
:104BE000086F3B0E0F6F9A0E0E6FCA0E0D6F0C6B97
:104BF0000A0E0A6F07C324F306C323F305C322F387
:104C000004C321F30FC328F30EC327F30DC326F308
:104C10000CC325F30001A2DF0150EFCF04F3ECCF6A
:104C200005F3ECCF06F3ECCF07F3005213E10301D9
:104C30000A51010AD8A402D000010CD008510CE09E
:104C40000F0B0A5D01E010E208BF0ED008BD04D0D2
:104C5000200E03D00301086B300E002600C021F3A4
:104C60000001FAEC03F003010FC324F30EC323F396
:104C70000DC322F30CC321F3286B276B266B0A0E9E
:104C8000256F00016BDF03C00FF302C00EF301C0FC
:104C90000DF300C00CF303010A2FACD70001B4EFF1
:104CA00026F00301036B026B016B006B5A0EF66E6C
:104CB000050EF76E090E156F0001BFEC08F0FFC27C
:104CC000EAFFFEC2E9FFB3DE200E0301216F0001FF
:104CD000FAEC03F0FFC216F3FEC215F3020E030155
:104CE000186FC70E176F0001B5DE01520AE1010E01
:104CF000036EAA0E0301006F03C001F3026B036B86
:104D000016D0FFC216F3FEC215F3020E0301186F90
:104D1000C90E176F00019EDE015209E1030E036EFA
:104D2000FE0E0301006F03C001F3026B036B03016E
:104D3000005306E1015304E1025302E103531CE076
:104D4000680EF66E050EF76E070E156F0001BFECCC
:104D500008F0410EE96E03C307F302C306F301C373
:104D600005F300C304F33AD7290E0301216F0001B4
:104D7000FAEC03F008D00301740EF66E050EF76E20
:104D8000000134EC04F000C300F001C301F002C3E1
:104D900002F003C303F08FEF33F0E9500301196F02
:104DA00018AF0DD01907198B151F161F171F181FC5
:104DB000152BD8B4162BD8B4172BD8B4182B3B0E00
:104DC000206F9A0E1F6FCA0E1E6F1D6B0A0E1B6F8F
:104DD00018C324F317C323F316C322F315C321F317
:104DE00020C328F31FC327F31EC326F31DC325F3D7
:104DF0000001B4DE0150EFCF15F3ECCF16F3ECCF8A
:104E000017F3ECCF18F3005213E103011B51010A11
:104E1000D8A402D000010CD019510DE00F0B1B5D7E
:104E200001E02EE219BF2CD019BD05D0200E21D0F3
:104E3000200E0301191719AB0CD0199B00C019F3F0
:104E40002D0E216F0001FAEC03F0030119C300F0ED
:104E5000196B300E19AB0DD0199B00C019F32D0E34
:104E6000216F0001FAEC03F0030119C300F0196B84
:104E7000300E002600C021F30001FAEC03F003011C
:104E800020C324F31FC323F31EC322F31DC321F346
:104E9000286B276B266B0A0E256F00015FDE03C0AF
:104EA00020F302C01FF301C01EF300C01DF3030175
:104EB0001B2F8ED7000172EF27F0860EF66E050EBF
:104EC000F76E0A0E0301156F0001BFEC08F0410EEA
:104ED000E96E10C318F30FC317F30EC316F30DC317
:104EE00015F35BD7940EF66E050EF76E050E0301F3
:104EF000156F0001BFEC08F012C3EAFF11C3E9FF10
:104F000096DD9C0EF66E050EF76E050E0301156F0D
:104F10000001BFEC08F014C3EAFF13C3E9FF87DD0B
:104F200012C316F311C315F3020E0301186FD50E49
:104F3000176F00018FDD015202E194908B7012C354
:104F400016F311C315F3020E0301186FDC0E176F71
:104F5000000180DD015202E194928B7212C316F3BC
:104F600011C315F3020E0301186FE30E176F000152
:104F700071DD015202E194948B7412C316F311C3D4
:104F800015F3020E0301186FEA0E176F000162DDC0
:104F900001520BE10C0E0301216F0001FAEC03F04A
:104FA00014C3EAFF13C3E9FF42DD0AEF28F007C389
:104FB00009F306C308F303010B6B0A6B06C3E9FF91
:104FC00007C3EAFFEFCF0CF30C51260802E00C53A5
:104FD0002EE106C3E9FF07C3EAFFEF6A09C30EF338
:104FE00008C30DF30001ADDC0BC30EF30AC30DF3D0
:104FF000A8DC05C310F304C30FF303C30EF302C30D
:105000000DF309C312F308C311F30BC314F30AC35E
:1050100013F353D7010E03010625086F000E072175
:10502000096F0B6B0A6B0C5301E113D00ED00C51BE
:105030003D080BE106C3E9FF07C3EAFFEF6A010E73
:1050400006250A6F000E07210B6F062BD8B4072B1D
:10505000B5D70001000C0301046B026B0A0E036F4D
:10506000016B006B0201FE51FF1104E1000E016EA5
:10507000026EFED003010451042B036A0201FE25D7
:10508000E96EFF510320EA6EEFCF05F303010551EE
:105090002D080FE1010E026F0451042B036A020177
:1050A000FE25E96EFF510320EA6EEFCF05F3030101
:1050B0000FD005512B080CE10451042B036A0201A7
:1050C000FE25E96EFF510320EA6EEFCF05F30301E1
:1050D00005512F08D8B0BDD005513908D8A0B9D096
:1050E000055130082AE1036A04510201FE25E96EE8
:1050F000FF510320EA6EEF5078080FE0036A0301C6
:1051000004510201FE25E96EFF510320EA6EEF50C3
:105110005808D8B402D0030110D0100E0301036F59
:10512000042B0451042B036A0201FE25E96EFF5192
:105130000320EA6EEFCF05F3030103510A0826E1CD
:1051400005512F0822E2055139081FE34B6B0A0E67
:105150004A6F01C34DF300C34CF300013FEC22F052
:10516000300E0301055D0124006F000E0220016F67
:105170000451042B036A0201FE25E96EFF5103204E
:10518000EA6EEFCF05F30301DBD763D003511008BC
:1051900060E10551600806E205517A0803E3055114
:1051A000DF0B01D00551056F05512F0803E20551B2
:1051B000390806E2055140084CE20551460849E32A
:1051C00005512F0819E20551390816E30035066F1D
:1051D0000135076F063707370637073706370737B2
:1051E000F00E0617300E055D0625016E000E072134
:1051F00001C000F3016F16D00035066F0135076F4F
:10520000063707370637073706370737F00E061712
:10521000410E055D0A0F0625016E000E072101C033
:1052200000F3016F0451042B036A0201FE25E96EAD
:10523000FF510320EA6EEF500301056F600806E29C
:1052400005517A0803E30551DF0B01D00551056FC5
:10525000ABD703510A0807E1022D05D0001F011F3B
:10526000002BD8B4012B00C301F001C302F00201EE
:1052700000011EEF34F003010351240DF350036AC3
:105280005E0F016E000E032201C004F303C005F39C
:10529000230E0425E96E000E0521EA6EEFB603D059
:1052A000000E016E0DD000012BEC09F0230E03015E
:1052B0000425E96E000E0521EA6EEF96010E016EDF
:1052C0000001000C03011F51240DF350216B206FCE
:1052D000140E2025016E000E2121036E01505E0F79
:1052E000E96E000E0320EA6EECCF21F3ED52EFCF12
:1052F00020F3205305E1215303E1000E016E2FD06E
:105300001F51240DF350216B206F0F0E2025016ECD
:10531000000E2121036E01505E0FE96E000E032086
:10532000EA6EEF3C08D07D6B00018FEC13F001506A
:10533000030115D014D01F51240DF350216B206FA1
:10534000230E2027000E21235E0E2025E96E000E7D
:105350002121EA6E000EEFB2010E016E00D00001B5
:10536000000C0CC321F188EF2FF003013151240D03
:10537000F350036A5E0F016E000E032201C032F388
:1053800003C033F30F0E3225E96E000E3321EA6EAF
:10539000EF3C03D0000E016ECBD0230E3225E96E18
:1053A000000E3321EA6E000EEFB2010E010B03E195
:1053B000000E016EBDD0010E3225016E000E3321AC
:1053C000036E01C034F3356F0B0E3225E96E000E0B
:1053D0003321EA6EECCF37F3ED52EFCF36F30D0EFB
:1053E0003225E96E000E3321EA6EECCF39F3ED522F
:1053F000EFCF38F3160E3225E96E000E3321EA6E38
:10540000EFCF3AF3ECCF3BF3ECCF3CF3ECCF3DF3F3
:105410001A0E3225E96E000E3321EA6EEFCF3EF30D
:10542000ECCF3FF3ECCF40F3ECCF41F30F0E32253E
:10543000E96E000E3321EA6EEFCF42F3100E3225F3
:10544000E96E000E3321EA6EECCF44F3ED52EFCF5C
:1054500043F303C046F301C045F337C348F336C3F3
:1054600047F339C34AF338C349F33DC34EF33CC352
:105470004DF33BC34CF33AC34BF341C352F340C328
:1054800051F33FC350F33EC34FF3180E536F42C363
:1054900054F344C356F343C355F3000120EC15F015
:1054A000160E03013225016E000E3321036E01C07A
:1054B00034F3356FEA6E01C0E9FFEFCF36F3ECCF7E
:1054C00037F3ECCF38F3ECCF39F3100E3225E96E19
:1054D000000E3321EA6EECCF03F0ED52EFCF00F077
:1054E00003C001F0026A036A3651002637510122D7
:1054F000385102223951032235C3EAFF34C3E9FF90
:1055000000C0EFFF01C0ECFF02C0ECFF03C0ECFFE6
:10551000230E3225E96E000E3321EA6EEF92230E40
:105520003225E96E000E3321EA6EEF98010E016E0E
:105530000001000C03012B51240DF350036A5E0F90
:10554000016E000E032201C02DF303C02EF3140ED2
:105550002D25E96E000E2E21EA6EECCF32F3ED52CE
:10556000EFCF31F3315305E1325303E1000E016E09
:1055700083D00F0E2D25E96E000E2E21EA6EEF3C32
:1055800039D00F0E2D25016E000E2E21036E01C0A5
:1055900031F3326F7D6B000116EC0BF032C3EAFF82
:1055A00031C3E9FF01C0EFFF0F0E03012D25E96EA6
:1055B000000E2E21EA6EEF3C03D0000E016E5CD08F
:1055C000100E2D25E96E000E2E21EA6EEC6AED52CA
:1055D000EF6A0F0E2D25E96E000E2E21EA6EEFCF39
:1055E00031F331C396F3986B280E976F000124ECCA
:1055F0000BF00301230E2D25E96E000E2E21EA6E1D
:10560000EF882CC3A0F3000169EC0BF0140E03012A
:105610002D25E96E000E2E21EA6EFF0EEF2602E226
:10562000EE52ED06100E2D25E96E000E2E21EA6ECB
:10563000ECCF03F0ED52EFCF2FF303C030F32F2B5D
:10564000D8B4302B100E2D25E96E000E2E21EA6EF7
:1056500030C3ECFFED522FC3EFFF305102080AE2D6
:10566000FF0A03E12F51C90805E22BC331F3000102
:105670007CDE0301010E016E000144EF2BF021C11D
:105680002BF32AC32CF356D70150000C0900F6CF98
:105690000DF3F7CF0EF3F5CF2AF3F1DF0DC3F6FFCD
:1056A0000EC3F7FF03010C2F01D002D00001EED78B
:1056B0000001CFEF2FF0EACF14F3E9CF13F303018A
:1056C0000D39F0090F6F0F27E20F106F320F126FB5
:1056D0000D510F0B102710271227E90F116F1127FB
:1056E00011270C390F0B1127122711371237121FF0
:1056F00012370C510F0B12270F37070E0E6F0A0EC1
:1057000011071227FDE310071127FDE30F071027EC
:10571000FDE30E070F27FDE3030EEA6E0E0EE96EA2
:10572000070E1315139DE926120EE95CD8B4138DEC
:10573000EF50006E08E113BD06D013B915D013B7B2
:1057400002D0200E03D013871399300E0026EACF23
:105750000DF3E9CF0CF300C02AF3000190DF0DC375
:10576000EAFF0CC3E9FF0301EE5013ADDDD70001E2
:10577000D7EF2FF00900F5520CE0F6CF0CF3F7CF7E
:105780000DF3F5CF2AF37BDF0CC3F6FF0DC3F7FF54
:10579000F1D7000CEF520FE0EACF0DF3E9CF0CF395
:1057A000EFCF2AF36CDF0DC3EAFF0CC3E9FFE92A50
:1057B000D8B4EA2AEFD732EF30F01AC31FF382DDF4
:1057C000015204E1000E016E026E73D003011A5102
:1057D000240DF350206B1F6F0F0E1F25016E000E5E
:1057E0002021036E01505E0FE96E000E0320EA6E69
:1057F000EF3C03D01C6B1B6B18D01A51240DF350D7
:10580000206B1F6F100E1F25016E000E2021036EEE
:1058100001505E0FE96E000E0320EA6EECCF03F03C
:10582000ED52EFCF1BF303C01CF3CA0ED8801B55FB
:105830001D6F030E1C551E6F1A51240DF350206B63
:105840001F6F140E1F25016E000E2021036E0150E4
:105850005E0FE96E000E0320EA6EECCF03F0ED520E
:10586000EFCF01F003501E5D1AE303E11D51015C0F
:1058700016E21A51240DF350206B1F6F140E1F25D2
:10588000016E000E2021036E01505E0FE96E000EC6
:105890000320EA6EECCF03F0ED52EF5003D01EC3AD
:1058A00003F01D511D6F03C01EF31DC301F01EC385
:1058B00002F00001000C03010EC3E9FF0FC3EAFF71
:1058C000ECCF03F0ED52EFCF14F303C015F315C383
:1058D0002CF314C32BF300011FEC24F00301136B12
:1058E00001C012F31251131103E1000E016E42D0F8
:1058F00021C11AF3000161DF02C011F301C010F3EE
:1059000003011051111103E1010E016E33D0115149
:10591000135D07E303E11251105D03E2010E166F00
:1059200005D013C311F312C310F3166B11C303F0A8
:105930001051D8B411071007031011E015C303F07C
:105940001451142BD8B4152BE96E03C0EAFFEFCF26
:1059500017F317C32AF3000192DE0301E7D70EC342
:10596000E9FF0FC3EAFF15C3ECFFED5214C3EFFFCD
:1059700016C301F00001000C2FC301F02EC300F08C
:105980000066012A0900F5CFEEFF002EFBD7012E9D
:10599000F9D7F86A000C0301226B216B29811CC323
:1059A000E9FF1DC3EAFFECCF03F0ED52EFCF23F385
:1059B00003C024F31AC3E9FF1BC3EAFFEFCF00F0D3
:1059C000ECCF01F0ECCF02F0ECCF03F003C028F3F2
:1059D00002C027F301C026F300C025F328C303F05B
:1059E00027C302F026C301F025C300F0010E2527CE
:1059F000D8B0262BD8B4272BD8B4282B03C02DF32E
:105A000002C02CF301C02BF300C02AF302C0F8FF40
:105A100001C0F7FF00C0F6FF030EEA6E1F0EE96E2D
:105A20002F6B010E2E6F0001A7DF03011F51250808
:105A300041E128C303F027C302F026C301F025C3C8
:105A400000F0010E2527D8B0262BD8B4272BD8B4C8
:105A5000282B03C02DF302C02CF301C02BF300C090
:105A60002AF302C0F8FF01C0F7FF00C0F6FF030EE3
:105A7000EA6E200EE96E2F6B010E2E6F00017CDFA7
:105A800003012051250814E12251245D0FE303E1B5
:105A90002351215D0BE21E5305E0250E2A6F000104
:105AA000EEDD0301212BD8B4222B01D01CD001D074
:105AB0001AD018D01F5314E02251245D0FE303E1E4
:105AC0002351215D0BE21E5305E01FC32AF30001A1
:105AD000D6DD0301212BD8B4222B01D004D002D073
